:100000000C9435000C945D000C945D000C945D0024
:100010000C945D000C945D000C945D000C945D00EC
:100020000C945D000C945D000C945D000C945D00DC
:100030000C945D000C945D000C945D000C945D00CC
:100040000C94B7040C945D000C948A040C94640422
:100050000C945D000C945D000C945D000C945D00AC
:100060000C9449030C945D002D0511241FBECFEFA5
:10007000D8E0DEBFCDBF11E0A0E0B1E0E0E1F2E109
:1000800002C005900D92A432B107D9F722E0A4E294
:10009000B1E001C01D92A934B207E1F710E0C5E359
:1000A000D0E004C02197FE010E940009C433D107AB
:1000B000C9F70E942F050C949F060C94000085ED53
:1000C0008093BC008091BC0084FDFCCF109286011F
:1000D000089520916201260F3327331F2132310505
:1000E000ECF420918601FC0190E080E0243069F07E
:1000F00082E00895A09162012191AC014E5B5E4FB8
:10010000A40FB52FB11D2C930196861798F38091FB
:100110006201680F6093620180E0089581E00895B4
:1001200008958FEF9FEF08958FEF9FEF08958091CF
:10013000410190E09195819591090895CF93DF93C6
:10014000CB01EA01642F0E946900CE01DF91CF91BB
:100150000895CF93DF930F92CDB7DEB7698361E047
:10016000CE0101960E94690081E090E00F90DF913E
:10017000CF910895FC01538D448D252F30E0842FBD
:1001800090E0821B930B541710F0CF9608950197BF
:100190000895FC01918D828D981761F0A28DAE0FAC
:1001A000BF2FB11D5D968C91928D9F5F9F73928F33
:1001B00090E008958FEF9FEF0895FC01918D828D5F
:1001C000981731F0828DE80FF11D858D90E008952C
:1001D0008FEF9FEF0895FC01918D228D892F90E084
:1001E000805C9F4F821B91098F7399270895FC01B2
:1001F000A48DA80FB92FB11DA35ABF4F2C91848D88
:1002000090E001968F739927848FA689B7892C93E4
:10021000A089B1898C9180648C93938D848D98137F
:1002200006C00288F389E02D80818F7D8083089548
:10023000EF92FF920F931F93CF93DF93EC01F62E73
:1002400081E0888F9B8D8C8D981316C0E889F98981
:10025000808185FF11C0EE89FF896083E889F98973
:1002600080818064808381E090E0DF91CF911F9155
:100270000F91FF90EF9008950B8D10E00F5F1F4FCF
:100280000F731127E02E8C8D8E110CC00FB607FC5A
:10029000FACFE889F989808185FFF5CFCE010E94E8
:1002A000F700F1CFEB8DEC0FFD2FF11DE35AFF4F5F
:1002B000F0820B8FEA89FB8980818062D3CFCF9354
:1002C000DF93EC01888D8823B9F0AA89BB89E8897E
:1002D000F9898C9185FD03C0808186FD0DC00FB624
:1002E00007FCF7CF8C9185FFF2CF808185FFEDCFA2
:1002F000CE010E94F700E9CFDF91CF9108958CEAFB
:1003000091E00E94EB0021E0892B09F420E0822F8C
:10031000089580E090E0892B29F00E947F018111EF
:100320000C9400000895CF92DF92EF92FF920F930A
:100330001F93CF93DF937C016A0110E000E00C155E
:100340001D0581F0EB01D701ED91FC910190F08149
:10035000E02D6991C7010995892B21F00F5F1F4F8F
:10036000BE01EDCFC801DF91CF911F910F91FF909A
:10037000EF90DF90CF90089590E080E008958E5048
:10038000806480937C0080917A00806480937A00FE
:1003900080917A0086FDFCCF809178009091790061
:1003A0000895789484B5826084BD84B5816084BDED
:1003B00085B5826085BD85B5816085BDEEE6F0E0DE
:1003C000808181608083E1E8F0E01082808182603A
:1003D0008083808181608083E0E8F0E080818160BB
:1003E0008083E1EBF0E0808184608083E0EBF0E0EB
:1003F000808181608083EAE7F0E08081846080838F
:100400008081826080838081816080838081806838
:1004100080831092C1000895009799F0FC0101902B
:100420000020E9F73197AF01481B590BE091AC016F
:10043000F091AD010280F381E02DBC018CEA91E0E6
:10044000099490E080E008952F923F924F925F923E
:100450006F927F928F929F92AF92BF92CF92DF92D4
:10046000EF92FF920F931F93CF93DF93CDB7DEB739
:10047000A4970FB6F894DEBF0FBECDBF6B017C0111
:10048000142FAC019B010E94D9088823F9F082E166
:1004900091E00E940C024C01C401A4960FB6F8949E
:1004A000DEBF0FBECDBFDF91CF911F910F91FF90A7
:1004B000EF90DF90CF90BF90AF909F908F907F9004
:1004C0006F905F904F903F902F9008954601570195
:1004D000E894B7F82FEF3FEF4FE75FE7C501B401AE
:1004E0000E94D90881110DC02FEF3FEF4FE75FE762
:1004F000C501B4010E940F0718161CF486E191E0B3
:10050000C8CF2FEF3FEF4FE75FE4C701B6010E946E
:10051000670818161CF48AE191E0BBCF2FEF3FEF7C
:100520004FE75FECC701B6010E940F0787FDF3CFCD
:1005300020E030E0A901C701B6010E940F07912C0D
:10054000812C87FF10C0E091AC01F091AD010190CA
:10055000F081E02D6DE28CEA91E009954C01F7FA0B
:10056000F094F7F8F09400E060E070E080E09FE342
:10057000101741F020E030E040E251E40E941407FF
:100580000F5FF6CFA70196010E94A3062B013C0145
:100590000E9486076B017C010E94B5079B01AC019C
:1005A000C301B2010E94A2062B013C0119A25E0107
:1005B00081E2A80EB11CAAA22B2CC701B6012AE029
:1005C00030E040E050E00E94DE08605DF50162939B
:1005D0005F01FAE0CF16D104E104F10408F053C042
:1005E000C5010E940C02880E991E112369F0E0914A
:1005F000AC01F091AD010190F081E02D6EE28CEA4A
:1006000091E00995880E991E115008F445CF20E01D
:1006100030E040E251E4C301B2010E946C082B01BA
:100620003C010E9486076B01F12CE12C19A2AAA0C3
:10063000B22C362E0D2DEBA2FCA2C701B6012AE08A
:1006400030E040E050E00E94DE08605DF50162931A
:100650005F01FAE0CF16D104E104F104B8F4C5015A
:100660000E940C02880E991E632D702F8BA19CA1F5
:100670000E94B5079B01AC01C301B2010E94A20612
:100680002B013C01C1CF69017A0197CF69017A0141
:10069000D4CF1F920F920FB60F9211242F933F9336
:1006A0004F935F936F937F938F939F93AF93BF937A
:1006B000EF93FF938091B900887F803609F44AC098
:1006C000F0F5883209F4A5C018F5803109F499C015
:1006D000B8F4882309F4F5C0883009F492C0FF917A
:1006E000EF91BF91AF919F918F917F916F915F91AA
:1006F0004F913F912F910F900FBE0F901F90189523
:10070000883109F486C0803251F78093850114C086
:10071000803409F49BC040F48033B9F38833F9F690
:100720008093850185ECAEC0803509F483C088359F
:1007300009F494C0883499F60E945F00D0CF8839BC
:1007400009F48AC038F5883729F050F4883611F05A
:10075000803729F683E0809386011092840155C08A
:10076000883809F479C0803919F0803809F0B7CF9A
:1007700080918401803208F06FC0E091840181E0B3
:100780008E0F809384018091BB00F0E0EC59FE4F06
:1007900080833BC0803B39F0D0F4803A09F477C0C5
:1007A000883A09F09CCF84E080938601109263011F
:1007B00010926201F0E0E0E0099580916201811100
:1007C0000FC081E0809362011092420109C0803C19
:1007D00009F4A8CF883C09F4A5CF883B09F07FCF66
:1007E000E091630181E08E0F80936301F0E0EE5BA6
:1007F000FE4F80818093BB009091630180916201E4
:1008000029C08091AB018093BB0085EC8093BC0034
:1008100066CF9091AA018091A901981758F5E091AF
:10082000AA0181E08E0F8093AA01F0E0E757FE4F06
:100830008081E9CFE091AA0181E08E0F8093AA0127
:100840008091BB00F0E0E757FE4F80839091AA01B2
:100850008091A9019817C8F285E8D8CFE091AA0144
:1008600081E08E0F8093AA018091BB00F0E0E757F2
:10087000FE4F80838091880181115ECF81E080935B
:10088000870184EA8093BC001092860128CF85EC12
:100890008093BC001092860180918401803230F4F4
:1008A000E0918401F0E0EC59FE4F108260918401E8
:1008B00070E084E691E0F0E0E0E0099510928401B8
:1008C0000ECF1092850138CF1F920F920FB60F9264
:1008D00011242F933F934F935F936F937F938F9345
:1008E0009F93AF93BF93EF93FF938CEA91E00E94A5
:1008F000F700FF91EF91BF91AF919F918F917F9101
:100900006F915F914F913F912F910F900FBE0F907C
:100910001F9018952F932FB72F938F939F93EF933B
:10092000FF93E091BC01F091BD018081E091C20193
:10093000F091C30182FD19C090818091C5018F5F44
:100940008F732091C601821741F0E091C501F0E05C
:10095000E455FE4F958F8093C501FF91EF919F91D4
:100960008F912F912FBF2F9118958081F6CF1F92D5
:100970001FB61F9211242F933F938F939F93AF9392
:10098000BF938091290190912A01A0912B01B091F0
:100990002C013091280123E0230F2D3750F50196CB
:1009A000A11DB11D209328018093290190932A0154
:1009B000A0932B01B0932C018091240190912501EB
:1009C000A0912601B09127010196A11DB11D809330
:1009D000240190932501A0932601B0932701BF9194
:1009E000AF919F918F913F912F911F901FBE1F90AC
:1009F000189526E8230F0296A11DB11DD3CF0895A7
:100A0000ECEAF1E01382128288EE93E0A0E0B0E01D
:100A100084839583A683B78384E091E09183808368
:100A200085EC90E09587848784EC90E097878687B3
:100A300080EC90E0918B808B81EC90E0938B828BAB
:100A400082EC90E0958B848B86EC90E0978B868B84
:100A5000118E128E138E148E08950C9400050E9430
:100A6000D101E091BC01F091BD0182E08083E09171
:100A7000B801F091B9011082E091BA01F091BB0187
:100A80008FEC80831092C401E091C001F091C1010C
:100A900086E08083E091BE01F091BF01808180619A
:100AA0008083E091BE01F091BF01808188608083E6
:100AB000E091BE01F091BF01808180688083E09168
:100AC000BE01F091BF0180818F7D80838CEA91E02F
:100AD0000E945F01C0E0D0E08CEA91E00E94EB0050
:100AE000181619060CF020C18CEA91E00E94C9008A
:100AF000803B910589F783E10E94BF01BC01990FFA
:100B0000880B990B0E94B70720E030E040E85AE3D9
:100B10000E946C0820E030E040EA50E40E946C083B
:100B200020E030E040E05FE30E94A20620E030E0F9
:100B300048EC52E40E946C086B017C01C0923D01BC
:100B4000D0923E01E0923F01F09240018FE00E947E
:100B5000BF01BC01990F880B990B0E94B70720E0D9
:100B600030E040E85AE30E946C0820E030E040EAC0
:100B700050E40E946C0820E030E040E05FE30E9417
:100B8000A20620E030E048EC52E40E946C0860933A
:100B9000390170933A0180933B0190933C0180E1CD
:100BA0000E94BF01BC01990F880B990B0E94B707E7
:100BB00020E030E040E85AE30E946C0820E030E09A
:100BC00040EA50E40E946C0820E030E040E05FE33F
:100BD0000E94A20620E030E048EC52E40E946C083B
:100BE00060933501709336018093370190933801FB
:100BF00081E10E94BF01BC01990F880B990B0E94F3
:100C0000B70720E030E040E85AE30E946C0820E09B
:100C100030E040EA50E40E946C0820E030E040E020
:100C20005FE30E94A20620E030E048EC52E40E941C
:100C30006C0860933101709332018093330190937B
:100C4000340182E10E94BF01BC01990F880B990B0E
:100C50000E94B70720E030E040E85AE30E946C08A9
:100C600020E030E040EA50E40E946C0820E030E0F0
:100C700040E05FE30E94A20620E030E048EC52E44E
:100C80000E946C0860932D0170932E0180932F01B8
:100C90009093300142E0C701B6010E9424028EE128
:100CA00091E00E940C026091390170913A018091AB
:100CB0003B0190913C0142E00E9424028EE191E0D0
:100CC0000E940C02609135017091360180913701CC
:100CD0009091380142E00E9424028EE191E00E944E
:100CE0000C02609131017091320180913301909139
:100CF000340142E00E9424028EE191E00E940C0245
:100D000060912D0170912E0180912F019091300101
:100D100042E00E94240280E291E00E940C028CEAF0
:100D200091E00E945F01D8CE209709F4D5CE0E94B1
:100D30007F01882309F4D0CE0E940000CDCEF89424
:100D40000C9406095058BB27AA270E94BA060C9497
:100D50002D080E941F0838F00E94260820F039F460
:100D60009F3F19F426F40C941C080EF4E095E7FB61
:100D70000C941608E92F0E943E0858F3BA17620730
:100D800073078407950720F079F4A6F50C946008A2
:100D90000EF4E0950B2EBA2FA02D0B01B901900196
:100DA0000C01CA01A0011124FF27591B99F0593FDA
:100DB00050F4503E68F11A16F040A22F232F342F22
:100DC0004427585FF3CF469537952795A795F04070
:100DD0005395C9F77EF41F16BA0B620B730B840B85
:100DE000BAF09150A1F0FF0FBB1F661F771F881F3D
:100DF000C2F70EC0BA0F621F731F841F48F4879595
:100E000077956795B795F7959E3F08F0B0CF939586
:100E1000880F08F09927EE0F9795879508950E94FF
:100E2000F20708F481E008950E9428070C942D0829
:100E30000E94260858F00E941F0840F029F45F3FE6
:100E400029F00C94160851110C9461080C941C089C
:100E50000E943E0868F39923B1F3552391F3951B43
:100E6000550BBB27AA2762177307840738F09F5FCB
:100E70005F4F220F331F441FAA1FA9F335D00E2E38
:100E80003AF0E0E832D091505040E695001CCAF7A5
:100E90002BD0FE2F29D0660F771F881FBB1F261768
:100EA00037074807AB07B0E809F0BB0B802DBF013F
:100EB000FF2793585F4F3AF09E3F510578F00C940E
:100EC00016080C9461085F3FE4F3983ED4F38695CE
:100ED00077956795B795F7959F5FC9F7880F911D2F
:100EE0009695879597F90895E1E0660F771F881F1B
:100EF000BB1F621773078407BA0720F0621B730BCE
:100F0000840BBA0BEE1F88F7E09508950E944608FF
:100F100088F09F5798F0B92F9927B751B0F0E1F0BA
:100F2000660F771F881F991F1AF0BA95C9F714C06A
:100F3000B13091F00E946008B1E008950C9460080F
:100F4000672F782F8827B85F39F0B93FCCF38695A3
:100F500077956795B395D9F73EF490958095709500
:100F600061957F4F8F4F9F4F0895E89409C097FB7D
:100F70003EF490958095709561957F4F8F4F9F4F70
:100F80009923A9F0F92F96E9BB279395F6958795B4
:100F900077956795B795F111F8CFFAF4BB0F11F477
:100FA00060FF1BC06F5F7F4F8F4F9F4F16C088231E
:100FB00011F096E911C0772321F09EE8872F762F54
:100FC00005C0662371F096E8862F70E060E02AF095
:100FD0009A95660F771F881FDAF7880F9695879581
:100FE00097F90895990F0008550FAA0BE0E8FEEF56
:100FF00016161706E807F907C0F012161306E407DD
:10100000F50798F0621B730B840B950B39F40A26D5
:1010100061F0232B242B252B21F408950A2609F4B3
:10102000A140A6958FEF811D811D089597F99F67B7
:1010300080E870E060E008959FEF80EC0895002460
:101040000A941616170618060906089500240A942D
:1010500012161306140605060895092E0394000CB3
:1010600011F4882352F0BB0F40F4BF2B11F460FF42
:1010700004C06F5F7F4F8F4F9F4F089557FD90586B
:10108000440F551F59F05F3F71F04795880F97FB4C
:10109000991F61F09F3F79F0879508951216130606
:1010A0001406551FF2CF4695F1DF08C01616170635
:1010B0001806991FF1CF869571056105089408956A
:1010C000E894BB2766277727CB0197F908950E94FC
:1010D000F20708F48FEF08950E947F080C942D0802
:1010E0000E941F0838F00E94260820F0952311F076
:1010F0000C9416080C941C0811240C9461080E948E
:101100003E0870F3959FC1F3950F50E0551F629F05
:10111000F001729FBB27F00DB11D639FAA27F00D50
:10112000B11DAA1F649F6627B00DA11D661F829F77
:101130002227B00DA11D621F739FB00DA11D621F5C
:10114000839FA00D611D221F749F3327A00D611D79
:10115000231F849F600D211D822F762F6A2F11245B
:101160009F5750409AF0F1F088234AF0EE0FFF1F8E
:10117000BB1F661F771F881F91505040A9F79E3FE5
:10118000510580F00C9416080C9461085F3FE4F35D
:10119000983ED4F3869577956795B795F795E7953B
:1011A0009F5FC1F7FE2B880F911D9695879597F944
:1011B00008950E94F207880B990B0895A1E21A2E58
:1011C000AA1BBB1BFD010DC0AA1FBB1FEE1FFF1FEB
:1011D000A217B307E407F50720F0A21BB30BE40B3B
:1011E000F50B661F771F881F991F1A9469F7609582
:1011F0007095809590959B01AC01BD01CF0108953C
:10120000EE0FFF1F0590F491E02D0994F894FFCFA5
:101210000000000018019301BA005F01EB00C90053
:10122000DD006E616E00696E66006F7666002C00F0
:041230000D0A0000A3
:00000001FF
